:100000000C9463000C948B000C948B000C948B006C
:100010000C948B000C948B000C948B000C948B0034
:100020000C948B000C948B000C948B000C948B0024
:100030000C948B000C948B000C948B000C948B0014
:100040000C9415090C948B000C94E3080C94BD08D7
:100050000C948B000C948B000C948B000C948B00F4
:100060000C945F090C948B00000000002400270012
:100070002A000000000023002600290000000008DC
:10008000000201000003040700000000000000005F
:10009000010204081020408001020408102001021F
:1000A0000408102000000000250028002B00040494
:1000B0000404040404040202020202020303030310
:1000C00003037E0A4F0F11241FBECFEFD8E0DEBF1F
:1000D000CDBF11E0A0E0B1E0E4EAF3E202C0059098
:1000E0000D92A438B107D9F723E0A4E8B1E001C02C
:1000F0001D92A933B207E1F710E0C2E6D0E004C0D8
:100100002197FE010E949A10C136D107C9F70E94BB
:10011000320B0C94C5110C940000E0912103F09176
:1001200022038E179F0798F530912703332361F040
:10013000639FB0011124672F349FA0011124452F24
:10014000329F90011124232F30912D03E091280339
:10015000F091290350912A0335131AC0DC01AA0F2C
:10016000BB1F8A0F9B1F8E0F9F1FE0912A03E80F72
:10017000F92FF11D6083E0912B03E80FF92FF11D9A
:10018000408330912C03830F911DFC01208308953F
:10019000880F991F880F991F8E0F9F1FFC01E30F77
:1001A000F11D1082E2CF1F93CF93DF9311E0180F60
:1001B000209127031217A1F1C0912803D0912903A0
:1001C000215070E060E061F08F3FF1F430E050E0EA
:1001D00040E06FEF7FEF80E090E00E940310B901F4
:1001E000FE014091230350912403CF018C1B9D0BF2
:1001F0008417950798F44081469FC001479F900D52
:10020000112490833196EDCF812F90E0982F88278D
:100210000197622F70E00E947210E2CF10932703C3
:10022000DF91CF911F91089508950895AF92BF92E5
:10023000CF92DF92EF92FF920F931F93CF93DF93B2
:100240006C017B018B01040F151FEB015E01AE18E1
:10025000BF08C017D10759F06991D601ED91FC9103
:100260000190F081E02DC6010995892B79F7C50130
:10027000DF91CF911F910F91FF90EF90DF90CF9082
:10028000BF90AF900895FC01538D448D252F30E031
:10029000842F90E0821B930B541710F0CF96089593
:1002A00001970895FC01918D828D981761F0A28DC0
:1002B000AE0FBF2FB11D5D968C91928D9F5F9F7386
:1002C000928F90E008958FEF9FEF0895FC01918D3C
:1002D000828D981731F0828DE80FF11D858D90E0A9
:1002E00008958FEF9FEF0895FC01918D228D892F46
:1002F00090E0805C9F4F821B91098F73992708952E
:1003000086E792E00E94740121E0892B09F420E045
:10031000822F089580E090E0892B29F00E948001CF
:1003200081110C9400000895FC01A48DA80FB92F31
:10033000B11DA35ABF4F2C91848D90E001968F730D
:100340009927848FA689B7892C93A089B1898C912C
:10035000837080648C93938D848D981306C002887B
:10036000F389E02D80818F7D80830895EF92FF9245
:100370000F931F93CF93DF93EC0181E0888F9B8DC8
:100380008C8D98131AC0E889F989808185FF15C082
:100390009FB7F894EE89FF896083E889F9898081A5
:1003A0008370806480839FBF81E090E0DF91CF9174
:1003B0001F910F91FF90EF900895F62E0B8D10E096
:1003C0000F5F1F4F0F731127E02E8C8D8E110CC005
:1003D0000FB607FCFACFE889F989808185FFF5CF50
:1003E000CE010E949401F1CFEB8DEC0FFD2FF11D9A
:1003F000E35AFF4FF0829FB7F8940B8FEA89FB898D
:1004000080818062CFCFCF93DF93EC01888D8823EA
:10041000B9F0AA89BB89E889F9898C9185FD03C067
:10042000808186FD0DC00FB607FCF7CF8C9185FF4C
:10043000F2CF808185FFEDCFCE010E949401E9CFFC
:10044000DF91CF910895833081F028F4813099F0C5
:100450008230A9F008958730A9F08830C9F084303F
:10046000B1F4809180008F7D03C0809180008F77F0
:1004700080938000089584B58F7784BD089584B5F6
:100480008F7DFBCF8091B0008F778093B00008956F
:100490008091B0008F7DF9CFCF93DF93282F30E08C
:1004A000F901E458FF4F8491F901E057FF4FD491CF
:1004B000F901E255FF4FC491CC23A1F081110E94B4
:1004C0002302EC2FF0E0EE0FFF1FEE58FF4FA59137
:1004D000B491EC91ED2381E090E009F480E0DF91AC
:1004E000CF91089580E090E0FACF1F93CF93DF93F0
:1004F000282F30E0F901E458FF4F8491F901E057CB
:10050000FF4FD491F901E255FF4FC491CC23A9F0DC
:10051000162F81110E942302EC2FF0E0EE0FFF1F37
:10052000EC55FF4FA591B4918FB7F894EC91111150
:1005300008C0D095DE23DC938FBFDF91CF911F9150
:100540000895DE2BF8CFCF93DF9390E0FC01E057C6
:10055000FF4F249182559F4FFC0184918823C9F05D
:1005600090E0880F991FFC01E859FF4FA591B491C5
:10057000FC01EC55FF4FC591D49161110DC09FB79F
:10058000F8948C91209582238C938881282328834A
:100590009FBFDF91CF910895623051F49FB7F894D7
:1005A0003C91822F809583238C93E8812E2BEFCF73
:1005B0008FB7F894EC912E2B2C938FBFEACF3FB7D7
:1005C000F8948091ED019091EE01A091EF01B0912E
:1005D000F00126B5A89B05C02F3F19F00196A11D7B
:1005E000B11D3FBFBA2FA92F982F8827BC01CD017D
:1005F000620F711D811D911D42E0660F771F881FDC
:10060000991F4A95D1F70895CF92DF92EF92FF920A
:100610000F931F93CF93DF93CDB7DEB729970FB614
:10062000F894DEBF0FBECDBF8091280390912903BF
:10063000892B09F480C0C0902E03D0902F03E09046
:100640003003F09031030E94DF026C157D058E05AA
:100650009F0550F40E94DF0260932E0370932F03D6
:1006600080933003909331030E94DF0200912E03A8
:1006700010912F032091300330913103601B710BD7
:10068000820B930B6C32714081059105A0F2F894B6
:1006900080912303909124039A838983E091280316
:1006A000F0912903DF0111968081898790911F03C2
:1006B000E0913203F091330380913403992309F4DC
:1006C00049C09081982B98879081809589238F834A
:1006D0008F818C8388E08B8358856F8149853B812E
:1006E0002C8189819A81508347FD252F3A9520835B
:1006F000262F39F0441F00C000006083000000C0B6
:10070000F2CF38E04D9160830000019761F7F093DC
:100710003303E093320349873B832C839A83898395
:1007200078940E94DF0260932E0370932F038093CE
:1007300030039093310329960FB6F894DEBF0FBEB5
:10074000CDBFDF91CF911F910F91FF90EF90DF9080
:10075000CF9008959081982B9887908180958923D8
:100760008F838F818E8388E08D8358856F81498543
:100770003D812E8189819A81508347FD252F00C0BC
:1007800000C0208300C000C000C000C000C0608363
:100790000000262F3A9541F0441F000000C000C021
:1007A00000C000C000C0E8CF38E04D9100C06083B9
:1007B00000C0019709F7F0933303E09332034987B0
:1007C0003D832E83ABCF2091C901260F3327331FE2
:1007D00021323105ECF420914C02FC0190E080E0E4
:1007E000243069F082E00895A091C9012191AC0103
:1007F00047555E4FA40FB52FB11D2C930196861758
:1008000098F38091C901680F6093C90180E0089551
:1008100081E0089510924C0281E080934B02109287
:10082000260261E082E10E94750261E083E10E949C
:100830007502E9EBF0E080818E7F808380818D7F7F
:10084000808388E48093B80085E48093BC00089599
:10085000CF93DF9391E09093A8018823B9F0C091E2
:10086000B800D091BA008091BC008A7B8093BC0014
:1008700060E082E10E94750260E083E10E947502FF
:100880000E940A04D093BA00C093B800DF91CF91C0
:1008900008958F929F92AF92BF92CF92DF92EF9284
:1008A000FF920F931F93CF93DF93D0917502D132B4
:1008B00008F0D7C0182FC09174020E94DF026B01AC
:1008C0007C0180914C0281116BC082E080934C02CC
:1008D00010934B028FEF80934A0210924902D093FB
:1008E0004802A4E5B2E0E8E2F2E080E0D81391C06B
:1008F0001092270280912702CC0FC82BC0932702A9
:1009000080912602813009F088C0109226020E9450
:10091000DF026B017C01809127028093BB008091F4
:100920004E0290914F02A0915002B0915102892B3A
:100930008A2B8B2BA1F00E94DF0200914E021091B6
:100940004F0220915002309151026C197D098E099D
:100950009F09061717072807390708F442C0809136
:10096000BC0083FDD8CF85EC8093BC000E94DF02E1
:100970006B017C0180914C02823009F450C080915F
:100980004A028F3F09F46FC080914A02803209F415
:100990006CC080914A02803309F469C084E026C0AB
:1009A00080914E0290914F02A0915002B09151025D
:1009B000892B8A2B8B2B09F484CF0E94DF02809035
:1009C0004E0290904F02A0905002B09051026C19CC
:1009D0007D098E099F0986169706A806B90608F0B4
:1009E00070CF80914D020E94280485E0109253023E
:1009F0001092750210925202DF91CF911F910F91C8
:100A0000FF90EF90DF90CF90BF90AF909F908F902E
:100A100008959D9191938F5F69CF85EEA5CF8091C9
:100A20004E0290914F02A0915002B0915102892B39
:100A30008A2B8B2B09F49ECF0E94DF0200914E027D
:100A400010914F0220915002309151026C197D0992
:100A50008E099F09061717072807390708F08ACF5C
:100A6000C0CF81E0C3CF80E0C1CF82E0BFCF83E0C1
:100A7000BDCF0895E091F6018091F501E81730F4BB
:100A8000F0E0E857FE4F808190E008958FEF9FEFF0
:100A900008959091F6018091F5012FEF3FEF98179F
:100AA00048F4E92FF0E0E857FE4F208130E09F5FE7
:100AB0009093F601C90108958091F5019091F60196
:100AC000891B990B0895CF92DF92EF92FF920F93BB
:100AD0001F93CF93DF937C01CB018A0120915202B7
:100AE000222389F0EB016B01C40ED51ECC15DD0568
:100AF00069F06991D701ED91FC910190F081E02DB1
:100B0000C7010995F3CF642F0E94E303C801DF9169
:100B1000CF911F910F91FF90EF90DF90CF900895AC
:100B2000CF93DF931F92CDB7DEB769832091520236
:100B30002223F9F020917502203258F021E030E0B4
:100B4000FC013383228390E080E00F90DF91CF910E
:100B5000089580915302E82FF0E0EC5AFD4F9981FF
:100B600090838F5F809353028093750281E090E0C1
:100B7000ECCF61E0CE0101960E94E303F7CF90E055
:100B800080E00895CF92DF92EF92FF920F931F9330
:100B9000CF93DF9381E08093520288E680937402C2
:100BA000109253021092750260E083E193E00E947C
:100BB000900581E00E9449040E94DF026B017C01E4
:100BC00080914C02811165C081E080934C0280933A
:100BD0004B029FEF90934A021092490296E0909345
:100BE00048028093270280912702806D809327021C
:100BF00080912602813009F0AFC0109226020E9437
:100C0000DF026B017C01809127028093BB00809101
:100C10004E0290914F02A0915002B0915102892B47
:100C20008A2B8B2BA1F00E94DF0200914E021091C3
:100C30004F0220915002309151026C197D098E09AA
:100C40009F09061717072807390708F443C0809142
:100C5000BC0083FDD8CF85EC8093BC000E94DF02EE
:100C60006B017C0180914C02813009F477C0809146
:100C70004902873008F094C080914902A8E2B2E0AE
:100C8000E8E8F1E090E0981751F12D9121939F5FF2
:100C9000FACF80914E0290914F02A0915002B091F4
:100CA0005102892B8A2B8B2B09F48ACF0E94DF02F9
:100CB00000914E0210914F0220915002309151024A
:100CC0006C197D098E099F09061717072807390730
:100CD00008F076CF80914D020E94280480E01092A7
:100CE000F6018093F501882371F183E193E00E947E
:100CF0004905D82F83E193E00E944905C82F83E17D
:100D000093E00E9449053D2F32953F702AE0DF7045
:100D1000329FD00D1124D09321023C2F32953F7089
:100D2000CF70329FC00D1124C0932002AC0194E01B
:100D3000559547959A95E1F743708F70429F800DC6
:100D4000112480931F02DF91CF911F910F91FF908B
:100D5000EF90DF90CF90089585EE7ECF80914E0288
:100D600090914F02A0915002B0915102892B8A2B91
:100D70008B2B09F477CF0E94DF0200914E02109175
:100D80004F0220915002309151026C197D098E0959
:100D90009F09061717072807390708F063CF9ACF6E
:100DA00087E06CCFCF93DF93FC0101900020E9F73F
:100DB0003197AF01481B590BBC0186E792E00E94B6
:100DC0001601EC0142E050E06AE571E086E792E04E
:100DD0000E9416018C0F9D1FDF91CF91089585ED24
:100DE0008093BC0080914E0290914F02A0915002DE
:100DF000B09151020796A11DB11D23E0B695A795AC
:100E0000979587952A95D1F72091BC0024FD03C0C2
:100E100010924C02089540914E0250914F02609101
:100E2000500270915102452B462B472B69F30097D6
:100E3000A105B10541F025E32A95F1F700000197DE
:100E4000A109B109E1CF80914D020C942804CF9300
:100E5000DF93EC018091F901811134C0609184012C
:100E60007091850180918601909187016F5F7F4F1E
:100E70008F4F9F4F6093840170938501809386010B
:100E800090938701611571058105910511F00E940C
:100E9000FA0F0E94AB0F2CE030E040E050E00E94DF
:100EA000031070E0FB01EE0FFF1FE60FF71FEE5E71
:100EB000FE4F8081809307018181809306018281AA
:100EC0008093050120910501409106016091070181
:100ED000CE01DF91CF910C948D00EF92FF920F9392
:100EE0001F93CF93DF93EC017B0110E000E0809132
:100EF0002103909122030817190748F420E040E0ED
:100F000060E0C8010E948D000F5F1F4FF0CF0E946C
:100F10000403209709F419C1CC30D10509F422C18A
:100F200087E190E00E942707209721F0CC30D1057F
:100F300009F067C084E190E00E94270786E190E015
:100F40000E942707E114F10421F090E080E00E9464
:100F50002707C7016AE070E00E9486108B016130AC
:100F6000710509F0C9C08CE090E00E94270790E06D
:100F700080E00E94270726EF2003B001219F700D1B
:100F800011246E0D7F1D87E090E06130710509F43A
:100F9000E6C088E090E06230710509F4E0C089E0C5
:100FA00090E06330710509F4DAC08AE090E06430C3
:100FB000710509F4D4C084E090E06530710509F44E
:100FC000CEC08BE090E06630710509F4C8C083E0C4
:100FD00090E06730710509F4C2C082E090E06830AB
:100FE000710509F4BCC081E090E06930710509F435
:100FF000B6C0DF91CF911F910F91FF90EF900C94AD
:101000000403C130D10519F0CD30D10519F48EE1BA
:1010100090E096CFC230D10519F0CE30D10519F449
:101020008FE190E08DCFC330D10519F0CF30D105DD
:1010300019F480E290E084CFC430D10519F0C031BA
:10104000D10519F481E290E07BCFC530D10519F0CC
:10105000C131D10539F482E290E00E94270783E292
:1010600090E06ECFC630D10519F0C231D10539F408
:101070008DE190E00E9427078CE190E061CFC730BE
:10108000D10519F0C331D10539F48BE190E00E940C
:1010900027078AE190E054CFC830D10519F0C43158
:1010A000D10539F489E190E00E94270788E190E0BA
:1010B00047CFC930D10519F0C531D10539F482E1E6
:1010C00090E00E94270783E190E03ACFCA30D10533
:1010D00019F0C631D10519F484E190E031CFCB305D
:1010E000D10519F0679709F02DCF84E190E00E94B7
:1010F000270785E190E024CF6230710539F48CE058
:1011000090E00E94270780E190E033CF63307105C3
:1011100039F48CE090E00E9427078FE090E029CF1F
:101120006430710539F48CE090E00E9427078EE06E
:1011300090E01FCF6530710509F01DCF8CE090E085
:101140000E9427078DE090E014CFE114F10409F02C
:10115000E7CE81E190E00E94270786E090E00E94C0
:10116000270747CFE114F10409F0DACE86E090E0DA
:101170000E94270785E090E0F2CF1F920F920FB6F2
:101180000F9211242F933F934F935F936F937F930D
:101190008F939F93AF93BF93EF93FF9386E792E074
:1011A0000E949401FF91EF91BF91AF919F918F9118
:1011B0007F916F915F914F913F912F910F900FBE53
:1011C0000F901F9018951F920F920FB60F92112437
:1011D0002F938F939F93EF93FF93E0918602F0916B
:1011E00087028081E0918C02F0918D0282FD1BC00C
:1011F000908180918F028F5F8F7320919002821770
:1012000041F0E0918F02F0E0EA58FD4F958F809316
:101210008F02FF91EF919F918F912F910F900FBEB1
:101220000F901F9018958081F4CF1F920F920FB6E8
:101230000F9211242F933F938F939F93AF93BF935C
:1012400080911B0290911C02A0911D02B0911E0280
:101250003091EC0123E0230F2D3758F50196A11DA5
:10126000B11D2093EC0180931B0290931C02A0936C
:101270001D02B0931E028091ED019091EE01A091AC
:10128000EF01B091F0010196A11DB11D8093ED0118
:101290009093EE01A093EF01B093F001BF91AF9155
:1012A0009F918F913F912F910F900FBE0F901F90A4
:1012B000189526E8230F0296A11DB11DD2CF1F92CB
:1012C0000F920FB60F9211242F933F934F935F937A
:1012D0006F937F938F939F93AF93BF93EF93FF93FE
:1012E0008091B900887F803609F44AC0F0F58832D1
:1012F00009F4A7C018F5803109F49BC0B8F488231D
:1013000009F4F9C0883009F494C0FF91EF91BF91BE
:10131000AF919F918F917F916F915F914F913F918D
:101320002F910F900FBE0F901F901895883109F4E0
:1013300088C0803251F780934A0214C0803409F487
:101340009DC040F48033B9F38833F9F680934A02A4
:1013500085ECB0C0803509F485C0883509F496C0A5
:10136000883499F60E94EF06D0CF883909F48CC0F2
:1013700038F5883729F050F4883611F0803729F68F
:1013800083E080934C021092EB0157C0883809F437
:101390007BC0803919F0803809F0B7CF8091EB011C
:1013A000803208F071C0E091EB0181E08E0F8093F4
:1013B000EB018091BB00F0E0E553FE4F80833DC020
:1013C000803B39F0E0F4803A09F479C0883A09F0BA
:1013D0009CCF84E080934C021092CA011092C90104
:1013E000E091F301F091F40109958091C901811117
:1013F0000FC081E08093C9011092A90109C0803C0F
:1014000009F4A6CF883C09F4A3CF883B09F07DCF2F
:10141000E091CA0181E08E0F8093CA01F0E0E755A8
:10142000FE4F80818093BB009091CA018091C901D9
:1014300029C0809127028093BB0085EC8093BC007B
:1014400064CF9091490280914802981758F5E09135
:10145000490281E08E0F80934902F0E0E85DFD4F84
:101460008081E9CFE091490281E08E0F80934902AB
:101470008091BB00F0E0E85DFD4F808390914902D0
:10148000809148029817C8F285E8D8CFE0914902C8
:1014900081E08E0F809349028091BB00F0E0E85D0F
:1014A000FD4F808380914B0281115CCF81E080935E
:1014B000260284EA8093BC0010924C0226CF85EC71
:1014C0008093BC0010924C028091EB01803230F48A
:1014D000E091EB01F0E0E553FE4F10826091EB01EB
:1014E00070E0E091F101F091F2018BEC91E009954F
:1014F0001092EB010ACF10924A0234CF1092790277
:101500001092780288EE93E0A0E0B0E080937A0237
:1015100090937B02A0937C02B0937D022AE331E09A
:10152000309377022093760225EC30E030938302EB
:101530002093820224EC30E03093850220938402D1
:1015400020EC30E0309387022093860221EC30E0DB
:10155000309389022093880222EC30E030938B0292
:1015600020938A0226EC30E030938D0220938C0287
:1015700010928F0210929002109291021092920299
:10158000109216031092150380931703909318037B
:10159000A0931903B0931A038CE491E09093140381
:1015A00080931303109220031092270310922E03AE
:1015B00010922F03109230031092310381E0809338
:1015C0002D0380932A0310922B0392E090932C0317
:1015D00080931F038CE690E0909324038093230371
:1015E0000E94A0109093290380932803009789F10B
:1015F0002CE6FC0111922A95E9F784E290E09093A1
:1016000022038093210386E090E090932603809349
:10161000250380912003882341F061E086E00E9449
:10162000A30260E086E00E947502E4EBF0E0E49142
:10163000F0E0EE0FFF1FEC55FF4F859194919093D2
:10164000330380933203E6E9F0E0E491E09334035E
:1016500008951092240310922303109222031092F3
:101660002103D1CFCF93DF9300D000D0CDB7DEB729
:10167000789484B5826084BD84B5816084BD85B56D
:10168000826085BD85B5816085BD80916E00816079
:1016900080936E001092810080918100826080931F
:1016A0008100809181008160809381008091800021
:1016B0008160809380008091B10084608093B1004C
:1016C0008091B00081608093B00080917A00846046
:1016D00080937A0080917A00826080937A00809172
:1016E0007A00816080937A0080917A00806880938C
:1016F0007A001092C1001092F6011092F50110923A
:101700005302109275020E940A0484E191E09093C2
:10171000F4018093F30185E191E09093F2018093CD
:10172000F101E0918602F091870282E08083E091EE
:101730008202F09183021082E0918402F09185028E
:1017400080E1808310928E02E0918A02F0918B02F8
:1017500086E08083E0918802F09189028081806137
:101760008083E0918802F091890280818860808383
:10177000E0918802F0918902808180688083E09105
:101780008802F091890280818F7D80838DE591E0D0
:101790000E94D20687E791E00E94D206809125033D
:1017A0009091260397FD08C061E00E94A30260E0CB
:1017B000809125030E94750281E0809320030E949E
:1017C0000403809100010E94D30062E082E00E9445
:1017D000A30262E083E00E94A3022FB7F8948091F5
:1017E0001B0290911C02A0911D02B0911E022FBFFE
:1017F0008093220290932302A0932402B0932502A7
:101800000E94C20580911F0290910002890F9927C2
:10181000991F68E170E00E9486109C018093FF018F
:10182000809120029091FE01890F9927991F6CE306
:1018300070E00E9486108093FD01BC01C9010E94E6
:101840006D0748E1242E312C5AE0C52E60E0E62ECB
:1018500060E0F62EDD24D39478E6B72E3EE1A32E89
:101860002FB7F89480911B0290911C02A0911D0249
:10187000B0911E022FBF8093220290932302A09367
:101880002402B09325020E94C20530912102311139
:101890005DC080912002811159C080911F02811189
:1018A00055C080911B0290911C02A0911D02B09125
:1018B0001E02892B8A2B8B2B11F4D0921A02809155
:1018C0001A02882309F442C01092160210921702DD
:1018D000109218021092190210920E0210920F022A
:1018E0001092100210921102109212021092130222
:1018F000109214021092150210920A0210920B021A
:1019000010920C0210920D02109206021092070221
:101910001092080210920902109202021092030221
:1019200010920402109205021092220210922302D9
:10193000109224021092250210921B0210921C0297
:1019400010921D0210921E0210921A028091010242
:10195000381709F465C0E091000280911F028E0FD4
:101960009927991FB1010E948610282F8093FF01AB
:101970004091FE0180912002840F9927991F6CE30A
:1019800070E00E948610982E892E782E8093FD019B
:10199000311142C0E11102C04423B9F1711003C0FA
:1019A0002F5F2093FF01D0925202B09274021092E6
:1019B00053021092750260E083E193E00E9490056B
:1019C00060E083E193E00E949005872D6C2D0E94DA
:1019D00066108295807F682F690F83E193E00E94F3
:1019E00090058091FF016C2D0E9466108295807F8A
:1019F000682F690F83E193E00E94900581E00E94C7
:101A00004904109200021092FE018091FF01692D9D
:101A1000782D90E00E946D07809121028093010251
:101A200082E00E944C024091220250912302609178
:101A3000240270912502209103012817190641F014
:101A400040930E0250930F026093100270931102A4
:101A500099249394009709F4912C40900E02509091
:101A60000F0260901002709011028A019B0104190C
:101A70001509260937090333110521053105A0F0A1
:101A8000209101012817190679F090920101892B04
:101A900009F04FC140930A0250930B0260930C026D
:101AA00070930D02D092F8019092030183E00E949E
:101AB0004C024091220250912302609124027091C5
:101AC0002502209104012817190641F040931202C3
:101AD0005093130260931402709315029924939407
:101AE000009709F4912C40901202509013026090DC
:101AF0001402709015028A019B0104191509260928
:101B000037090333110521053105A0F020910201A9
:101B10002817190679F090920201892B09F05CC10F
:101B200040931602509317026093180270931902A3
:101B3000D092FA01909204018091F801882309F46F
:101B400047C040912202509123026091240270917B
:101B5000250280910A0290910B02A0910C02B09193
:101B60000D022A013B01481A590A6A0A7B0AD3016D
:101B7000C201803B9440A105B10550F18091F7016D
:101B80008F5F833008F053C18093F7018091F70194
:101B9000813009F057C140930602509307026093C9
:101BA0000802709309028091FF01882319F08C309C
:101BB00009F040C18091FD0181113CC187E190E0B5
:101BC0000E9427070E940403D092FC011092F801A2
:101BD0008091FA01882309F441C0809122029091FA
:101BE0002302A0912402B091250240911602509147
:101BF00017026091180270911902841B950BA60BB5
:101C0000B70B803B9440A105B10540F18091F901EB
:101C10008F5F8D3008F036C18093F901E091F901B2
:101C2000EE2391F08E2F90E0FC01EE0FFF1FE80FE6
:101C3000F91FEE5EFE4F80818093070181818093C2
:101C400006018281809305016091FD0170E0809121
:101C5000FF0190E00E946D071092FA018091FC0153
:101C6000882379F18091060290910702A0910802E1
:101C7000B0910902845D9E4FAF4FBF4F4091220249
:101C80005091230260912402709125024817590750
:101C90006A077B07B0F08091FF01882319F08C3030
:101CA00009F0F3C08091FD018111EFC020E040E018
:101CB00060E087E190E00E948D000E940403109292
:101CC000FC018091FB01882341F1809102029091F7
:101CD0000302A0910402B0910502845D9E4FAF4FB4
:101CE000BF4F4091220250912302609124027091D3
:101CF0002502481759076A077B0778F08091FD0194
:101D00008111C8C020E040E060E090E080E00E94E7
:101D10008D000E9404031092FB01E114F10409F408
:101D20009FCD0E948001882309F49ACD0E94000073
:101D300095CD80910A0290910B02A0910C02B09176
:101D40000D0280559B4FAF4FBF4F481759076A0789
:101D50007B0708F0A9CE8091F7018130F1F48091E2
:101D600000028F5F8831B0F48093000280911F02DF
:101D700090910002890F9927991FB1010E94861046
:101D80008093FF016091FD0170E00E946D07109249
:101D9000F8018ACE10920002E9CF8230C1F780911B
:101DA000FE018F5F8C33A8F48093FE0180912002A6
:101DB0009091FE01890F9927991F6CE370E00E94B2
:101DC0008610682F8093FD018091FF01792F90E0AC
:101DD000DCCF1092FE01EACF80911602909117029B
:101DE000A0911802B091190280559B4FAF4FBF4F81
:101DF000481759076A077B0708F09CCE80910001BD
:101E0000825E833D88F480930001809100010E94EE
:101E1000D3006091FD0170E08091FF0190E00E948D
:101E20006D071092FA0186CEA0920001EECF1092BB
:101E3000F701ACCE20E040E060E087E190E00E9456
:101E40008D00C0CE823009F0C1CE40930202509383
:101E5000030260930402709305028091FD018111D9
:101E600009C090E080E00E9427070E940403D092FE
:101E7000FB01ACCE20E040E060E090E080E00E941A
:101E80008D00F3CF1092F901C9CE87E190E00E9456
:101E9000270713CF90E080E00E9427073ACF809178
:101EA0002803909129030E943C1180912503909171
:101EB000260397FD03C060E00C94A30208958F925F
:101EC0009F92AF92BF92CF92DF92EF92FF92CF9309
:101ED000DF93EC01688179818A819B8161157105AD
:101EE0008105910521F464E279ED8BE597E02DE120
:101EF00033EF41E050E00E94031049015A019B0179
:101F0000AC01A7EAB1E40E9422106B017C01ACEEA7
:101F1000B4EFA50194010E943010C60ED71EE81E32
:101F2000F91EF7FE06C081E0C81AD108E10880E872
:101F3000F80AC882D982EA82FB82C701B6019F777C
:101F4000DF91CF91FF90EF90DF90CF90BF90AF9057
:101F50009F908F9008958F929F92AF92BF92CF9251
:101F6000DF92EF92FF9260910801709109018091D8
:101F70000A0190910B01611571058105910521F40C
:101F800064E279ED8BE597E02DE133EF41E050E03D
:101F90000E94031049015A019B01AC01A7EAB1E478
:101FA0000E9422106B017C01ACEEB4EFA5019401FC
:101FB0000E943010C60ED71EE81EF91EF7FE06C09E
:101FC00081E0C81AD108E10880E8F80AC092080147
:101FD000D0920901E0920A01F0920B01C701B6010B
:101FE0009F77FF90EF90DF90CF90BF90AF909F9042
:101FF0008F900895609308017093090180930A01FE
:1020000090930B010895052E97FB1EF400940E94F7
:102010001A1057FD07D00E94351007FC03D04EF46C
:102020000C941A1050954095309521953F4F4F4F85
:102030005F4F089590958095709561957F4F8F4F74
:102040009F4F08950E945710A59F900DB49F900D2B
:10205000A49F800D911D11240895B7FF0C942210A8
:102060000E942210821B930B0895A1E21A2EAA1B34
:10207000BB1BFD010DC0AA1FBB1FEE1FFF1FA21738
:10208000B307E407F50720F0A21BB30BE40BF50B35
:10209000661F771F881F991F1A9469F760957095BE
:1020A000809590959B01AC01BD01CF010895A29F41
:1020B000B001B39FC001A39F700D811D1124911D1C
:1020C000B29F700D811D1124911D0895991B79E017
:1020D00004C0991F961708F0961B881F7A95C9F7B8
:1020E00080950895AA1BBB1B51E107C0AA1FBB1F07
:1020F000A617B70710F0A61BB70B881F991F5A9594
:10210000A9F780959095BC01CD01089597FB072E06
:1021100016F4009407D077FD09D00E94721007FCD6
:1021200005D03EF4909581959F4F089570956195E7
:102130007F4F0895EE0FFF1F0590F491E02D099455
:102140000F931F93CF93DF938230910510F482E0B9
:1021500090E0E0913703F091380330E020E0B0E008
:10216000A0E0309799F42115310509F44AC0281BE5
:10217000390B24303105D8F58A819B8161157105B1
:1021800089F1FB0193838283FE0111C0408151815B
:102190000281138148175907E0F04817590799F44D
:1021A000109761F012960C93129713961C93329627
:1021B000CF01DF91CF911F910F91089500933703C5
:1021C00010933803F4CF2115310551F0421753070E
:1021D00038F0A901DB019A01BD01DF01F801C1CF8F
:1021E000EF01F9CF9093380380933703CDCFFE01F1
:1021F000E20FF31F81939193225031093983288391
:10220000D7CF2091350330913603232B41F4209111
:102210000E0130910F013093360320933503209146
:102220000C0130910D012115310541F42DB73EB758
:102230004091100150911101241B350BE0913503A1
:10224000F0913603E217F307A0F42E1B3F0B28177B
:10225000390778F0AC014E5F5F4F2417350748F01F
:102260004E0F5F1F50933603409335038193919334
:102270009FCFF0E0E0E09CCFCF93DF930097E9F0B1
:10228000FC01329713821282A0913703B091380378
:10229000ED0130E020E01097A1F420813181820F20
:1022A000931F20913503309136032817390709F021
:1022B00061C0F0933603E0933503DF91CF91089529
:1022C000EA01CE17DF07E8F54A815B819E014115DF
:1022D0005105B1F7E901FB83EA8349915991C40F94
:1022E000D51FEC17FD0761F4808191810296840F60
:1022F000951FE90199838883828193819B838A83D7
:10230000F0E0E0E012968D919C9113970097B9F55B
:102310002D913C911197CD010296820F931F209130
:102320003503309136032817390739F6309751F5C0
:102330001092380310923703B0933603A0933503FD
:10234000BCCFD383C28340815181840F951FC817AE
:10235000D90761F44E5F5F4F88819981480F591FFB
:10236000518340838A819B81938382832115310528
:1023700009F0B0CFF0933803E09337039ECFFD010F
:10238000DC01C0CF13821282D7CF10E0C2E6D0E0CA
:1023900004C0FE010E949A102196C336D107C9F7E6
:0423A000F894FFCFDF
:1023A400B401010101FFFFFF010000000000390337
:1023B4008000FFFFFFFF0000FF5E00FFBB00FFE4A3
:1023C40000ABF2001DDB160054FF0100FF5F00FFAD
:1023D400FF00DDFF006400000000B60116014301A8
:1023E40003027401520166010000000090056305B8
:1023F400BF0539055C0549053A050D0A0048616EBB
:102404006765756C20436C6F636B2068617320741F
:1024140075726E204F4E00436C6F636B2073746152
:0424240072740000CE
:00000001FF
